:020000040800F2
:1000000090020020ED0A00087D0300087F0300082D
:1000100083030008870300088B030008000000002A
:100020000000000000000000000000008F03000836
:1000300091030008000000009303000895030008E6
:10004000030B0008030B0008030B0008030B000858
:10005000030B0008030B0008030B0008030B000848
:10006000030B0008030B0008030B0008030B000838
:10007000030B0008030B0008030B0008030B000828
:10008000030B0008030B0008030B0008030B000818
:10009000030B0008030B0008030B0008030B000808
:1000A000030B0008030B0008030B0008030B0008F8
:1000B000030B0008030B0008030B0008030B0008E8
:1000C000030B0008030B0008030B0008030B0008D8
:1000D000030B0008030B0008030B0008030B0008C8
:1000E000030B0008030B0008030B000800F002F8E4
:1000F00000F03AF80AA090E8000C82448344AAF188
:100100000107DA4501D100F02FF8AFF2090EBAE885
:100110000F0013F0010F18BFFB1A43F0010318473B
:10012000C0210000E0210000103A24BF78C878C147
:10013000FAD8520724BF30C830C144BF04680C60ED
:10014000704700000023002400250026103A28BF35
:1001500078C1FBD8520728BF30C148BF0B60704739
:100160001FB51FBD10B510BD01F0D1FA1146FFF744
:10017000F7FF00F009F801F0EFFA03B4FFF7F2FF20
:1001800003BC00F053FC0000002400F074F900F000
:10019000E3FB00F0F1F90021084600F023FB76486C
:1001A00000F054FBE7E040F2A32406E022460021E1
:1001B000062000F0A5FB601C84B240F63350844258
:1001C000F4DB40F2A32406E022460021072000F0E1
:1001D00097FB601C84B240F633508442F4DB40F25B
:1001E000A32406E022460021082000F089FB601CC1
:1001F00084B240F633508442F4DB40F2A32406E09C
:1002000022460021092000F07BFB601C84B240F6EE
:1002100033508442F4DB40F2A32406E0224600215E
:100220000A2000F06DFB601C84B240F6335084421B
:10023000F4DB40F2A32406E0224600210B2000F06C
:100240005FFB601C84B240F633508442F4DB40F61E
:10025000FF720021084600F053FB00240BE000224F
:100260001146012000F04CFB22460021022000F044
:1002700047FB601C84B240F6FF708442EFDB04460B
:100280000BE000221146012000F03AFB224600213B
:10029000022000F035FB601E84B2002CF1DC00244B
:1002A0000BE000221146022000F02AFB224600212A
:1002B000012000F025FB601C84B240F6FF708442F0
:1002C000EFDB04460BE000221146022000F018FB91
:1002D00022460021012000F013FB601E84B2002C96
:1002E000F1DC40F6FF720021052000F009FB00243C
:1002F0000BE000221146032000F002FB2246002101
:10030000042000F0FDFA601C84B240F6FF708442C5
:10031000EFDB04460BE000221146032000F0F0FA68
:1003200022460021042000F0EBFA601E84B2002C6B
:10033000F1DC00240BE000221146042000F0E0FA7A
:1003400022460021032000F0DBFA601C84B240F654
:10035000FF708442EFDB04460BE0002211460420CC
:1003600000F0CEFA22460021032000F0C9FA601EF8
:1003700084B2002CF1DC16E70000A543704700BFF3
:10038000FEE700BFFEE700BFFEE700BFFEE77047E5
:1003900070477047704700000CB500200190009036
:1003A0006C48006840F480306A49086000BF6948C2
:1003B000006800F4003000900198401C0190009803
:1003C00018B90198B0F5A06FF1D16248006800F447
:1003D000003010B10120009001E000200090009852
:1003E000012843D15C48006840F010005A49086079
:1003F0000846006820F0030008600846006840F0E6
:100400000200086053484068524948600846406806
:1004100048600846406840F480604860084640688C
:1004200020F47C1048600846406840F4E8104860BA
:100430000846006840F08070086000BF45480068CA
:1004400000F000700028F9D04248406820F0030016
:10045000404948600846406840F00200486000BFDC
:100460003C48406800F00C000828F9D10CBD10B5DC
:10047000FFF792FF10BD10B53648006840F001004C
:1004800034490860084640683449084031494860AA
:1004900008460068324908402E490860084600684E
:1004A00020F4802008600846406820F4FE00486080
:1004B0004FF41F008860FFF7DAFF4FF00060294912
:1004C000086010BD10B5002100200022214B5B68A0
:1004D00003F00C0121B1042906D0082928D107E036
:1004E000214B224C236027E01F4B204C236023E04C
:1004F000184B5B6803F47010164B5B6803F4803292
:10050000022303EB904022B9194B4343174C23605D
:100510000DE0104B5B6803F4003323B1144B4343ED
:10052000124C236003E0104B4343104C236003E064
:100530000D4B0E4C236000BF00BF064B5B68C3F33E
:1005400003130C4CE15C094B1B68CB40074C236048
:1005500010BD000000100240002002400000FFF823
:10056000FFFFF6FE08ED00E000127A000000002018
:1005700000093D000400002008B50121082000F01A
:1005800059FEC020ADF8000010208DF803000320B4
:100590008DF802006946904800F090FBC0218E481B
:1005A00000F039FC08BD10B58B48006820F07040A1
:1005B000894908600846006840F040500860012002
:1005C000864908608649C1F89801042000F0DDF9E9
:1005D000002082490860042000F0D7F900208049FB
:1005E000C1F8980110BD10B57B48006820F070403C
:1005F000794908600846006840F0405008600020D3
:100600007649091F08607649C1F89C01042000F072
:10061000BCF901207149091F08607149C1F89C01AA
:10062000042000F0B2F910BD10B500246A4800683B
:1006300020F07040684908600846006840F00040BB
:10064000086001206549086000F09FF901206449B5
:10065000C1F8980100F099F907E0601CC4B2FA2CC7
:1006600003DDFFF7C0FF012010BD5C488038006843
:100670000028F2D15949091F086000BFF4E710B5FE
:1006800000205649091F08605348006820F0704058
:10069000514908600846006840F04050086000205A
:1006A0004F49C1F89C01022000F06FF901204B492D
:1006B000091F0860022000F068F900204849C1F8CD
:1006C000980110BD10B500204449091F0860424838
:1006D000006820F07040404908600846006840F01B
:1006E0004050086001203E49C1F89C01022000F002
:1006F0004CF901203949091F0860022000F045F932
:1007000000203749C1F8980110BD70B50446324841
:10071000006820F07040304908600846006840F0EA
:100720004050086000202D49091F086000251DE089
:10073000E00918B101202949086002E0002027499A
:1007400008606006040E022000F01FF90120234912
:10075000091F0860022000F018F900202049C1F8A4
:100760009801022000F011F9681CC5B2082DDFDBEA
:1007700070BD70B5054600241748006820F0704031
:10078000154908600846006840F0004008600026EF
:1007900017E000201149091F0860022000F0F5F859
:1007A00001200F49C1F898016006040E0B488038FB
:1007B000006808B1601CC4B2012000F0E6F8701CAB
:1007C000C6B2082EE5DB15B9FFF77CFF01E0FFF7A5
:1007D00056FF204670BD0000000C01409C81214264
:1007E0000080214270B505460C46FFF7DCFEFE2076
:1007F000FFF78BFFFFF718FF2846FFF786FFFFF78D
:1008000013FF2046FFF781FFFFF70EFFFFF7EBFE18
:1008100070BD70B50446FFF7C6FEFE20FFF775FFFA
:10082000FFF702FF2046FFF770FFFFF7FDFEFFF71F
:10083000BAFEFF20FFF769FFFFF7F6FE0020FFF783
:1008400098FF0546FFF7CFFE284670BD2DE9FC5FF7
:100850008346584601F0CEFC8046394A394B01F0B8
:100860009FFA064600F0F4FF83460024364D00222E
:10087000364B2046294601F0D1F804460D4658462D
:1008800001F0B8FC064632460B462046294601F0E8
:10089000C5F804460D4600222D4B2046294601F09E
:1008A000BFFB04460D4600222A4B2046294601F094
:1008B00001F8064600F05EFF804601F007FAC0B27C
:1008C00001900020FFF7A5FF82460AF07F0040F06C
:1008D0001000009000200099FFF784FFFE2001998E
:1008E000FFF780FF51460020FFF77CFF022000F059
:1008F00070F84AF0A1010020FFF774FFBDE8FC9FEB
:1009000070B504460D461646E9B2A200921DD0B25B
:10091000FFF768FFA100C91DC8B2C5F30721FFF7A3
:1009200061FFF1B2A2000832D0B2FFF75BFFA10075
:100930000931C8B2C6F30721FFF754FF70BD0000AC
:10094000713D0AD7A370ED3F84D777410000B040D6
:100950000000F03F0000E03F10B56FF0040000F031
:100960002EF92E4800682E49B0FBF1F02D49087091
:100970000846007800EB4001C1EBC0104FF6FF7154
:1009800001EAC0002849088010BD0146254A1278B6
:100990004A434FF0E0235A6100229A611A461269D5
:1009A00042F001021A6100BF4FF0E022106900F02E
:1009B00001021AB100F48032002AF5D04FF0E02293
:1009C000126922F001024FF0E0231A6100229A61BD
:1009D00070470146144A12884A434FF0E0235A6197
:1009E00000229A611A46126942F001021A6100BFA0
:1009F0004FF0E022106900F001021AB100F48032D9
:100A0000002AF5D04FF0E022126922F001024FF0E7
:100A1000E0231A6100229A61704700000000002064
:100A200000127A001400002016000020014600BFCA
:100A3000704700BF2B4A128802F04002002AF9D00A
:100A4000C2B2284B1B1D1A80704770B586B0044691
:100A50000E461546012144F2050000F0EBFB4FF471
:100A60000070ADF8140003208DF8160018208DF8E2
:100A7000170005A91C4800F021F94FF48060ADF87B
:100A8000140004208DF8170005A9174800F016F986
:100A900025208DF800008DF801608DF802500120AE
:100AA0008DF80300684600F040F801940020ADF88E
:100AB0000800ADF80A00ADF80C00ADF810000C20ED
:100AC000ADF80E0001A9074800F05BFC012240F2DE
:100AD0002551044800F0EDFC0121024800F0DDFC46
:100AE00006B070BD003801400008014008480047CA
:100AF000FEE7FEE7FEE7FEE7FEE7FEE7FEE7FEE7CE
:100B0000FEE7FEE703480449024A044B7047000031
:100B1000ED000008900000209002002090000020CE
:100B200031490143314A1160704770B500210023FB
:100B30000F22C47804B32D4C246804F4E064C4F597
:100B4000E064210AC1F10403CA40447804FA03F1C5
:100B50008478144021430901254C0678A155047876
:100B600004F01F050124AC4005786D11AD0005F1BE
:100B7000E025C5F8004109E0047804F01F050124D0
:100B8000AC401C4D0678761145F8264070BD1A4AD7
:100B90000A400243154B1B1F1A60704739B1134AB4
:100BA000121D12680243114B1B1D1A6006E00F4A0A
:100BB000121D126882430D4B1B1D1A6070470428DA
:100BC00008D14FF0E021096941F004014FF0E02223
:100BD000116107E04FF0E021096921F004014FF0B5
:100BE000E0221161704700000000FA050CED00E002
:100BF00000E400E080E100E080FFFF1F10B5044644
:100C0000CC48844208D10121042000F02DFB0021B2
:100C1000042000F029FB46E0C748844208D10121A6
:100C2000082000F021FB0021082000F01DFB3AE025
:100C3000C248844208D10121102000F015FB002198
:100C4000102000F011FB2EE0BD48844208D10121A4
:100C5000202000F009FB0021202000F005FB22E00D
:100C6000B848844208D10121402000F0FDFA00215B
:100C7000402000F0F9FA16E0B348844208D101217F
:100C8000802000F0F1FA0021802000F0EDFA0AE067
:100C9000AE48844207D10121801500F0E5FA002119
:100CA000A01500F0E1FA10BD10B50121084600F0D2
:100CB000DBFA0021012000F0D7FA10BD2DE9F04148
:100CC000024600250026002000230024002791F87A
:100CD00003C00CF00F0591F803C00CF0100CBCF130
:100CE000000F03D091F802C04CEA050591F800C04E
:100CF000BCF1000F31D0146800202BE04FF0010C44
:100D00000CFA00F3B1F800C00CEA03069E4220D1B1
:100D100083004FF00F0C0CFA03F7BC4305FA03FCF9
:100D20004CEA040491F803C0BCF1280F06D14FF03F
:100D3000010C0CFA00FCC2F814C00AE091F803C0E0
:100D4000BCF1480F05D14FF0010C0CFA00FCC2F8C1
:100D500010C0401C0828D1D31460B1F800C0BCF109
:100D6000FF0F34DD546800202EE000F1080C4FF036
:100D7000010808FA0CF3B1F800C00CEA03069E4221
:100D800021D183004FF00F0C0CFA03F7BC4305FA96
:100D900003FC4CEA040491F803C0BCF1280F05D110
:100DA00000F1080C08FA0CF8C2F8148091F803C09E
:100DB000BCF1480F07D100F1080C4FF0010808FA08
:100DC0000CF8C2F81080401C0828CED35460BDE84F
:100DD000F0814FF6FF710180022181700421C17002
:100DE00070470246002093680B400BB1012000E0E1
:100DF000002070470146886880B270470246002094
:100E0000D3680B400BB1012000E000207047014681
:100E1000C86880B2704701617047416170470AB18C
:100E2000016100E041617047C16070474FF480325A
:100E30000A438261816182618269826970470246E8
:100E40000020434B18684FF68073184040EA0210A8
:100E500008433F4B186070473E49C8617047F0B582
:100E60000A46002300240021002500F00046B6F1C8
:100E7000004F02D1364EF16901E0354E7168C0F382
:100E8000034583B200F44016B6F5401F08D121F0A7
:100E900070612F4E766826F070662D4F7E6012E0EE
:100EA00000F48016B6F5801F06D1032606FA05F475
:100EB000A14341F0706106E0460D360103FA06F6E3
:100EC000B14341F0706122B1460D360103FA06F6D6
:100ED000314300F00046B6F1004F02D11C4EF161E3
:100EE00001E01B4E7160F0BD30B500228B071C0F76
:100EF0000F2303FA04F2164B08338C1053F82430F6
:100F00009343134C08348D1044F8253023468C103D
:100F100053F824308C07240F00FA04F423430C4CBC
:100F200008348D1044F8253030BD0A49DC310860A2
:100F30007047000000080140000C01400010014013
:100F40000014014000180140001C01400020014035
:100F50000000014000002042DF48006840F001002E
:100F6000DD49086008464068DC490840DA494860C5
:100F700008460068DA490840D74908600846006812
:100F800020F4802008600846406820F4FE00486095
:100F90004FF41F0088607047CF49096821F4803101
:100FA000CD4A11601146096821F480211160B0F525
:100FB000803F03D0B0F5802F0ED106E0C649096806
:100FC00041F48031C44A116007E0C349096841F423
:100FD000A021C14A116000E000BF00BF704710B5FA
:100FE00001460022002300204A11012A02D1BA4CF6
:100FF000236806E0022A02D1B74C236A01E0B64C0E
:10100000636A01F01F02012494401C400CB10120CE
:1010100000E0002010BD38B500200090002400251D
:1010200000BF3120FFF7DBFF05460098401C009011
:101030000098B0F5A06F01D0002DF2D03120FFF75D
:10104000CEFF08B1012400E00024204638BD01464F
:101050000020A14A106820F0F80040EAC1001060AA
:101060007047A04908607047024600209A4B5868B4
:1010700020F47C1042EA01031843974B58607047F4
:1010800098490866704701460020934A506820F04E
:1010900003000843506070478F48406800F00C0020
:1010A0007047014600208C4A506820F0F000084349
:1010B0005060704701460020874A506820F4E06085
:1010C00008435060704701460020834A506820F46E
:1010D000605040EAC1005060704729B17E4A527AA0
:1010E00002437D4B5A7204E07B4A527A82437A4B28
:1010F0005A7270477B49D83108607047014600201A
:10110000754A506820F44040084350607047002101
:10111000714A20321170704A82F82010012802D0E2
:1011200004280AD104E001216B4A2032117005E045
:101130000521694A2032117000E000BF00BF7047EE
:101140006949086070476449096A0143624A11624B
:101150007047654944390860704730B50021002266
:10116000002400235C4D6D6805F00C0121B10429B9
:1011700005D0082923D105E05C4D056022E05B4DD8
:1011800005601FE0544D6D6805F47012524D6D6896
:1011900005F48034022505EB92421CB9544D5543A9
:1011A00005600BE04C4D6D6805F400351DB1504DE8
:1011B0005543056002E04D4D5543056002E04B4D3F
:1011C000056000BF00BF444D6D6805F0F0010909DE
:1011D000484D6B5C0568DD4045603F4D6D6805F42A
:1011E000E061090A434D6B5C4568DD4085603A4D1E
:1011F0006D6805F46051C90A3E4D6B5C4568DD4081
:10120000C560354D6D6805F44041890B3A4D6B5C06
:10121000C568B5FBF3F5056130BD29B12E4A5269A9
:1012200002432D4B5A6104E02B4A526982432A4BF8
:101230005A61704729B1284A92690243264B9A6144
:1012400004E0254A92698243234B9A61704729B191
:10125000214AD2690243204BDA6104E01E4AD26976
:1012600082431D4BDA61704729B11B4AD2680243A1
:10127000194BDA6004E0184AD2688243164BDA60F0
:10128000704729B1144A12690243134B1A6104E0F2
:10129000114A12698243104B1A6170471249403952
:1012A000086070470F49C86470470B49C8717047A0
:1012B0000948406A40F0807007494862704701461B
:1012C0000020054A92680A400AB1012000E000208F
:1012D0007047014988727047001002400000FFF813
:1012E000FFFFF6FE000042428004424200127A00F4
:1012F00000093D00180000202800002010B5044619
:10130000FB48844209D101218803FFF7ADFF00218A
:101310004FF48040FFF7A8FF32E0F648844209D13D
:1013200001214804FFF7ADFF00214FF40030FFF723
:10133000A8FF25E0F048844209D101218804FFF785
:10134000A0FF00214FF48020FFF79BFF18E0EB483F
:10135000844209D10121C804FFF793FF00214FF413
:101360000020FFF78EFF0BE0E548844208D1012101
:101370000805FFF786FF00214FF48010FFF781FF7B
:1013800010BD2DE9F04786B005460E460024A24662
:1013900000BFA1460027B08900B100BF2F462C8AAC
:1013A0004CF6FF700440F08804432C82AC894EF662
:1013B000F3100440B088318908437189084304431D
:1013C000AC81AC8A4FF6FF400440B0890443AC8244
:1013D00001A8FFF7C2FEC648874202D1DDF810A07F
:1013E00001E0DDF80CA0A88900F4004040B10AEB50
:1013F000CA0000EB0A1031684900B0FBF1F807E0C1
:101400000AEBCA0000EB0A1031688900B0FBF1F862
:101410006420B8FBF0F004012009642101FB10896D
:10142000A88900F4004040B1322000EBC900B0FBB5
:10143000F1F000F00700044308E0322000EB09104F
:101440006421B0FBF1F000F00F0004432C8106B0E2
:10145000BDE8F0874FF41651016000218180C18002
:1014600001810C21418100218181704710B5024624
:101470000020108A4FF2FF0318400B884C8823434A
:101480008C882343CC8823431843108210BD00214D
:10149000018041808180C180704721B1828942F4FE
:1014A0000052828104E082894DF6FF731A408281E6
:1014B0007047F0B50346002400260025002040F6C2
:1014C0006A17B94200D100BF1846C1F3421401F0B7
:1014D0001F06012707FA06F5012C01D10C3004E0A4
:1014E000022C01D1103000E014301AB107682F43EC
:1014F000076002E00768AF430760F0BD1AB1838A56
:101500000B43838202E0838A8B4383827047028A83
:101510004FF6F0731A400282028A0A430282704731
:1015200082894FF2FF731A40828182890A43828145
:10153000704721B1828942F00202828104E08289EF
:101540004FF6FD731A4082817047028A4FF6DF73AF
:101550001A400282028A0A430282704721B1028A3B
:1015600042F48042028204E0028A4BF6FF731A4082
:1015700002827047C1F30802828070470146888862
:10158000C0F308007047818941F0010181817047F3
:10159000028BD2B20283028B42EA0122028370479D
:1015A000028B02F47F420283028B0A43028370475C
:1015B00021B1828A42F02002828204E0828A4FF6C0
:1015C000DF731A408282704721B1828A42F0100292
:1015D000828204E0828A4FF6EF731A40828270475B
:1015E00021B1828A42F00802828204E0828A4FF6A8
:1015F000F7731A408282704721B1828942F4004217
:10160000828103E08289C2F30E028281704721B198
:10161000828A42F40062828204E0828A4FF2FF737F
:101620001A4082827047828A4FF6FB731A40828288
:10163000828A0A438282704721B1828A42F0020282
:10164000828204E0828A4FF6FD731A4082827047DC
:1016500002460020B1F5007F00D100BF13880B4087
:101660000BB1012000E00020704701F40072B2F5D8
:10167000007F00D100BFCA430280704770B50246A8
:10168000002400230025002040F66A16B14200D154
:1016900000BFC1F3421501F01F03012606FA03F350
:1016A000012D02D19689334006E0022D02D1168A1F
:1016B000334001E0968A33400C12012606FA04F406
:1016C0001688344013B10CB1012000E0002070BD39
:1016D00010B50022002340F66A14A14200D100BFD9
:1016E0000A1201249440A3B2DC43048010BD000020
:1016F000003801400044004000480040004C0040D9
:1017000000500040704770477047704770477546FB
:1017100000F02CF8AE4605006946534620F007005D
:10172000854618B020B5FFF7EDF9BDE820404FF031
:1017300000064FF000074FF000084FF0000B21F0BB
:101740000701AC46ACE8C009ACE8C009ACE8C00988
:10175000ACE8C0098D46704710B50446AFF3008071
:101760002046BDE81040FEF708BD00000048704765
:101770002C0000202DE9F041C1F30A52A2F2FF36FD
:101780002F4A304B0D460446142E2FDA002E12DA63
:1017900000F090F80022134600F000FC4CD2002D1F
:1017A000A4BF0024254647DA25F00040204318BF97
:1017B000254D41D018E0DFF894C02CFA06F705EA71
:1017C000070C5CEA040C08BFBDE8F08100F072F879
:1017D0000022134600F0E2FB2ED2002D03DA4FF474
:1017E0008010F0400544BD43002425E0332EC8BFDF
:1017F000BDE8F081A6F1140C4FF0FF3727FA0CF783
:101800003C4208BFBDE8F08100F0FEFB0022134619
:1018100000F0C4FB10D2002D0DDA142E08BF6D1C91
:1018200009D0C6F13400012101FA00F02044A042A1
:1018300038BF6D1C0446BC4329462046BDE8F081F4
:101840009C7500883CE4377E0000F0BFFFFF0F006E
:1018500021F00042A2F16052B2F5801F01F0004376
:1018600028BFD2F17F6C0BD95FEA001C43EAC202A9
:1018700042EB507018BF704728BF20F0010070473E
:10188000B2F5801FBCBF184670474FEA410C1CF5EB
:10189000001F02D2084600F01EBD70B500F02AFB02
:1018A00000000089FFF7F6BF4FF00040A0F5800070
:1018B0007047000010B591EA030F48BF83F0004362
:1018C00000F1B683841A71EB030C05D2121943EBB5
:1018D0000C03001B61EB0C01DFF824E14FEA11540B
:1018E000A4EB135C1EEA430F18BF9EEA445F73D05B
:1018F00023EA0E03DCF1200E21EA045143F48013A5
:1019000032D322FA0CFE10EB0E0023FA0CFE41EB50
:101910000E01CCF1200E03FA0EFE10EB0E0051F179
:101920000001B1F5801FCCF1200E32D201EB045141
:1019300012FA0EF2BDE8104058BF7047401C38BF85
:101940005FEA420218BF7047002814BF20F0010070
:1019500041F100014FEA410313F5001F38BF704702
:10196000A1F1C04100F014BB012A43EB0302ACF12A
:10197000200CDCF11F0E32BF4FF0000E23FA0CF3E7
:1019800010EB030041EB0451B4EB115FD0D0A1EB9D
:10199000045101F5801149085FEA300001EB045160
:1019A0000ED350F1000038BF12FA0EFE08D1BDE888
:1019B0001040C9E7401C38BF5FEA4202CAD1C3E702
:1019C000BDE810404FEA410313F5001F38BF7047D0
:1019D000A1F1C04100F0DCBA9EEA445F08D011EAF0
:1019E0005E0FBDE8104004BF01F0004100207047C9
:1019F000BDE8104070B500F07DFA00BF64FBBE3E4C
:101A00000000E0FF491058BFC1F140415B1058BFD2
:101A1000C3F140438B42EFF3008070472DE9C04192
:101A200030B4DFF8A0C23CEA111418BF3CEA13142A
:101A300000F0EC8081EA03051CEA111444EAD57435
:101A400018BF1CEA131500F0C780A4EB05044FF083
:101A5000004545EAC12145EAC32341EA505143EA22
:101A6000525304F17F74994204F500344FEAC020C8
:101A70004FEAC22208BF904200F09C804FEA1365F3
:101A80000FF24016765D4FEA134506FB05F7C7F1E6
:101A9000807706FB07F74FEAD737A7FB0368764244
:101AA000C8F58038A7FB06CE38BFA8F1010807FBB0
:101AB00008E64FF0000EA6FB028CE6FB03CEDCF13D
:101AC000000CCEF1004E38BFAEF1010EA6FB0C5853
:101AD0004FF000074FF00005E6FB0E87A1FB08C69C
:101AE000A0FB07CE16EB0E0645F10005E1FB0765EE
:101AF00015F1E04E7EBFA4F580345FEA46066D41E5
:101B000016F1800745F100054FEA17274FEA0666F0
:101B100047EA0567A6F1DE46B6F1805F4FEA152574
:101B20001FD9384624F0010C05EBC471BCF1FE6FDF
:101B300001EB0C1102D8F0BCBDE8008124425CBF6F
:101B400001F5801E9EEAC47F02D4F0BCBDE800818E
:101B5000244238D4F0BCA1F1C041BDE8004100F0FE
:101B600017BA4FEAD22242EA43524FEAD323A7FBE5
:101B700002864FEAD02040EA415007FB03661EEA86
:101B80000E0F4FEAD12105FB026658BFA6EB0056A7
:101B9000B6EB00564FEA520E4EEAC37E18EB0E0E1D
:101BA00056EB530EBDD518EB02085E417F1C55F174
:101BB0000005B6E74FF480154FF000074FF0000620
:101BC0004FF00008ADE7F0BC4FF0000001F1C0415C
:101BD00001F00041BDE8008111EA0C1F0CEA131569
:101BE00000D00CE013EA0C1F00F025804FF000003D
:101BF000F0BC81EA030101F00041BDE80081F0BCC6
:101C0000BDE8004181EA030100F0C2B9F0BCBDE8C3
:101C1000004170B500F06EF9097EFC3E00F007B897
:101C200081EA03014FF0000001F00041704781EAB2
:101C3000030100F0ADB9F0BCBDE800414FF0000079
:101C400021497047FFFDFBF9F7F5F4F2F0EEEDEBFB
:101C5000E9E8E6E4E3E1E0DEDDDBDAD8D7D5D4D3AA
:101C6000D1D0CFCDCCCBCAC8C7C6C5C4C2C1C0BFF6
:101C7000BEBDBCBBBAB9B8B7B6B5B4B3B2B1B0AFFC
:101C8000AEADACABAAA9A8A8A7A6A5A4A3A3A2A1E0
:101C9000A09F9F9E9D9C9C9B9A999998979796959B
:101CA00095949393929191908F8F8E8E8D8C8C8B37
:101CB0008B8A8989888887878685858484838382BF
:101CC000828181800000FF070000F87F4FEA1153F6
:101CD000A3F58063D3F11E03A8BFD3F1200C08DB6A
:101CE0004FF0004242EAC12252EA505232FA03F067
:101CF000704709420BD4102BC4BF0020704703F576
:101D0000787CBCF1FF3F05D04FF0FF3070474FF0BB
:101D10000000704770B500F0EDF800BF49922480D4
:101D200000207047F0E7000051EA030C17D41CF5BF
:101D3000801F58BFBCF5801F00F10680994218BF74
:101D4000704708BF9042704707D711F5801F58BFF2
:101D500013F5801F19D499427047894270471CF5CA
:101D6000801F08D5BCF5801FF7D58B4218BF704780
:101D700008BF824270474FF4001C1CEB410F38BF74
:101D80001CEB430F01D28B42704770B500F0B2F8E4
:101D9000922449004FF000514FF08053FFF732BEBC
:101DA000DFF848C170B51CEA111E1EBF1CEA1315EE
:101DB0009EEA0C0F95EA0C0F00F06F8081EA030495
:101DC00023EA4C134EEAD47E21EA4C1141F48011EF
:101DD00043F48013AE44A1FB024CA0FB0365AEF1BB
:101DE0007F7E361955EB0C05A1FB034C4CF100032B
:101DF000A0FB021C16EB0C06654153F100030942DF
:101E000018BF46F0010613F4007F0BD14FEA0331EF
:101E10004FEA0530340341EA155140EA16506FF09D
:101E200003020AE04FEAC3214FEAC520F40241EA67
:101E3000555140EA56506FF0020202EB2E4201EB80
:101E4000025585EACE710AD05FEA440C18BF24F02F
:101E5000004450F1000041F1000120EAD47040F24A
:101E6000FE7C624500D270BDA84214BF4FF0804492
:101E70004FF04044002E08BF0024BEF1806FA8BF81
:101E8000A1F1C041BDE8704080F282804FF00000B7
:101E900001F1C04101F0004170479EEA0C0F0CEACD
:101EA000131518BF95EA0C0F06D04FF0000081EA19
:101EB000030E0EF0004170BD00F01CF88900013ED9
:101EC00000F007B800F009B84FEA430C5FEA5C5C29
:101ED00008D081EA030100F05BB84FEA410C5FEAE9
:101EE0005C5CF6D14FF00000014970470000FF072D
:101EF0000000F87F0EF1020E2EF0030E5EF8046B68
:101F0000364205D4012A43EB030515F5001F12D80C
:101F1000012841EB010C1CF5001F0CD80ED14FEA33
:101F2000D17C15F5001F0CEB4C0C0CF1020C08BF1A
:101F30004CEBD37C04E04FF0080C01E04FEAD37C7B
:101F40000CEB4C0526FA05F606F00706B6F1040C74
:101F500006D20EEB860CBDE870404CF0010C6047D9
:101F6000DFE80CF0090B02024FF000414FF00000D7
:101F7000A1F5002170BD19461046012851EB01045E
:101F800018BFD4F5001484BF002001F0004170BDDB
:101F90000808A0F500114FEA3101704753EA010C1F
:101FA00017D41CF5801F58BFBCF5801F00F10680B8
:101FB0008B4218BF704708BF8242704707D713F59E
:101FC000801F58BF11F5801F19D48B4270479B4268
:101FD00070471CF5801F08D5BCF5801FF7D59942C6
:101FE00018BF704708BF904270474FF4001C1CEBAD
:101FF000430F38BF1CEB410F01D2994270470FB419
:102000000CBC03BCFFF7C1BE91EA030F10B581F011
:1020100000413FF557AC83F0004300F009B80000E1
:1020200010B591EA030F48BF83F000433FF54AAC77
:10203000841A71EB030C07D212198CF0004C43EB9D
:102040000C03001B61EB0C01DFF8A4E14FEA115413
:10205000A4EB135C1EEA430F18BF9EEA445F00F036
:10206000B08023EA6E03524221EA0451C3EB6E03AF
:1020700038BF5B1EDCF1200E25D322FA0CFE10EBDC
:102080000E0043FA0CFE41EB0E01CCF1200E03FAD8
:102090000EFE10EB0E0051F10001CCF1200E29D400
:1020A00012FA0EF201EB0451BDE8104058BF704720
:1020B000401C1CBFB2F1004F704700280CBF491CE8
:1020C00020F00100704712EB020E43EB030218BF31
:1020D0004FF0010E4EEA4202ACF1200CDCF11E0E74
:1020E00054D943FA0CFE10EB0E0051F1FF31CCF144
:1020F0001E0ED5D50EF1010E12FA0EFE404141EB37
:10210000010101EB445C5FEA5C5C10D910EBDE700E
:1021100001EB045138BFBEF1004FBDE8104018BFBD
:10212000704700280CBF491C20F00100704730D2D6
:102130004FEAD42C11F5001124F400641BD0B1FA3D
:1021400081F20B3AA41AA41ED2F12003914030FA76
:1021500003F31943904001EBCC71002C01EB0451C7
:10216000BDE81040A8BF704701F1C0414FF000002A
:1021700001F000417047B0FA80F310FA03F100D18A
:1021800010BDE41A173C4805C90AE4E701EB045105
:1021900010BD491001EB0451BDE810404FEA30007A
:1021A00002E04FF0000170474A0008BF0042F8D03B
:1021B000B2F5001F28BF704701F000414FF000004A
:1021C00070479EEA445F07D011EA5E0FBDE81040F9
:1021D00004BF002100207047BDE8104070B5FFF734
:1021E00089FE00BF40DFF63E83F000411046704795
:1021F0000000E0FF43004FEAD30C4FEA3C0C4340A1
:102200001FBF40070CF1605113F0FE4F70471CF0E8
:10221000006F03D100200CF0004170470CF0004328
:1022200043EA507010B540EACC0000F00EF800BF51
:10223000000000924FEA0001FFF7AABE4FF00041F4
:102240004FF00000A1F5002170470EF1020E2EF0B4
:10225000030E5EF8044B244204D44FEA4102B2F16B
:102260007F4F11D84FEA4003B3F17F4F0CD80ED106
:102270004FEAD07CB2F17F4F0CEB4C0C0CF1020C0E
:1022800008BF4CEBD17C04E04FF0080C01E04FEAB2
:10229000D17C0CEB4C0324FA03F404F00704B4F1F2
:1022A000040C06D20EEB840CBDE810404CF0010C7F
:1022B0006047DFE80CF0070802024FF00040A0F58D
:1022C000800010BD0846420018BFD2F1807288BF5E
:1022D00000F0004010BDFF2141EAD050C00570471A
:1022E00000230008000000202C0000002801000846
:1022F0002C2300082C000020640200004401000888
:1023000000A24A04000000000000000001020304D3
:102310000607080900000000000000000102030495
:0C23200001020304060708090204060875
:04000005080000ED02
:00000001FF
